{
  "contractName": "CrapToken",
  "abi": [
    {
      "inputs": [],
      "payable": false,
      "stateMutability": "nonpayable",
      "type": "constructor"
    },
    {
      "constant": true,
      "inputs": [],
      "name": "totalSupply",
      "outputs": [
        {
          "internalType": "uint256",
          "name": "",
          "type": "uint256"
        }
      ],
      "payable": false,
      "stateMutability": "view",
      "type": "function"
    }
  ],
  "bytecode": "0x6080604052348015600f57600080fd5b50620f42406000819055506084806100286000396000f3fe6080604052348015600f57600080fd5b506004361060285760003560e01c806318160ddd14602d575b600080fd5b60336049565b6040518082815260200191505060405180910390f35b6000548156fea265627a7a7231582084f8652c75504586b5c96d74d7720125e8834ad6e4f8679e9cf41a1e5203f7bd64736f6c63430005100032",
  "source": "pragma solidity >=0.4.21 <0.7.0;\r\n\r\ncontract CrapToken{\r\n    //Variables\r\n    uint256 public totalSupply;\r\n    //Constructor\r\n    constructor() public{\r\n        totalSupply = 1000000;\r\n    }\r\n    //Set Tokens\r\n    //Read the number of Tokens\r\n}",
  "sourcePath": "C:\\Users\\dsajw\\Desktop\\Blockchain\\Dapp\\ico\\contracts\\CrapToken.sol",
  "compiler": {
    "name": "solc",
    "version": "0.5.16+commit.9c3226ce.Emscripten.clang"
  },
  "schemaVersion": "3.1.0",
  "updatedAt": "2020-05-06T12:28:24.176Z",
  "networkType": "ethereum",
  "devdoc": {
    "methods": {}
  },
  "userdoc": {
    "methods": {}
  }
}