{
  "contractName": "CredentialPairs",
  "abi": [
    {
      "inputs": [
        {
          "internalType": "contract SwapToken",
          "name": "_tokenContract",
          "type": "address"
        },
        {
          "internalType": "contract SwapTokenSale",
          "name": "_tokenSaleContract",
          "type": "address"
        },
        {
          "internalType": "uint256",
          "name": "_value",
          "type": "uint256"
        }
      ],
      "payable": false,
      "stateMutability": "nonpayable",
      "type": "constructor"
    },
    {
      "anonymous": false,
      "inputs": [
        {
          "indexed": false,
          "internalType": "string",
          "name": "accountName",
          "type": "string"
        },
        {
          "indexed": false,
          "internalType": "string",
          "name": "key",
          "type": "string"
        },
        {
          "indexed": false,
          "internalType": "string",
          "name": "value",
          "type": "string"
        },
        {
          "indexed": false,
          "internalType": "address payable",
          "name": "owner",
          "type": "address"
        },
        {
          "indexed": false,
          "internalType": "bool",
          "name": "isDeleted",
          "type": "bool"
        }
      ],
      "name": "credentialPairCreated",
      "type": "event"
    },
    {
      "constant": true,
      "inputs": [],
      "name": "credentialPairCount",
      "outputs": [
        {
          "internalType": "uint256",
          "name": "",
          "type": "uint256"
        }
      ],
      "payable": false,
      "stateMutability": "view",
      "type": "function"
    },
    {
      "constant": true,
      "inputs": [
        {
          "internalType": "uint256",
          "name": "",
          "type": "uint256"
        }
      ],
      "name": "credentialPairs",
      "outputs": [
        {
          "internalType": "string",
          "name": "accountName",
          "type": "string"
        },
        {
          "internalType": "string",
          "name": "key",
          "type": "string"
        },
        {
          "internalType": "string",
          "name": "value",
          "type": "string"
        },
        {
          "internalType": "address payable",
          "name": "owner",
          "type": "address"
        },
        {
          "internalType": "bool",
          "name": "isDeleted",
          "type": "bool"
        }
      ],
      "payable": false,
      "stateMutability": "view",
      "type": "function"
    },
    {
      "constant": true,
      "inputs": [],
      "name": "revealValue",
      "outputs": [
        {
          "internalType": "uint256",
          "name": "",
          "type": "uint256"
        }
      ],
      "payable": false,
      "stateMutability": "view",
      "type": "function"
    },
    {
      "constant": true,
      "inputs": [],
      "name": "tokenContract",
      "outputs": [
        {
          "internalType": "contract SwapToken",
          "name": "",
          "type": "address"
        }
      ],
      "payable": false,
      "stateMutability": "view",
      "type": "function"
    },
    {
      "constant": true,
      "inputs": [],
      "name": "tokenSaleContract",
      "outputs": [
        {
          "internalType": "contract SwapTokenSale",
          "name": "",
          "type": "address"
        }
      ],
      "payable": false,
      "stateMutability": "view",
      "type": "function"
    },
    {
      "constant": false,
      "inputs": [
        {
          "internalType": "string",
          "name": "_accountName",
          "type": "string"
        },
        {
          "internalType": "string",
          "name": "_key",
          "type": "string"
        },
        {
          "internalType": "string",
          "name": "_value",
          "type": "string"
        }
      ],
      "name": "createCredentialPair",
      "outputs": [],
      "payable": false,
      "stateMutability": "nonpayable",
      "type": "function"
    },
    {
      "constant": false,
      "inputs": [],
      "name": "revealCredentialPair",
      "outputs": [
        {
          "internalType": "bool",
          "name": "",
          "type": "bool"
        }
      ],
      "payable": false,
      "stateMutability": "nonpayable",
      "type": "function"
    }
  ],
  "bytecode": "0x608060405234801561001057600080fd5b5060405161138e38038061138e8339818101604052606081101561003357600080fd5b81019080805190602001909291908051906020019092919080519060200190929190505050826000806101000a81548173ffffffffffffffffffffffffffffffffffffffff021916908373ffffffffffffffffffffffffffffffffffffffff16021790555081600160006101000a81548173ffffffffffffffffffffffffffffffffffffffff021916908373ffffffffffffffffffffffffffffffffffffffff1602179055508060028190555050505061129c806100f26000396000f3fe608060405234801561001057600080fd5b506004361061007d5760003560e01c8063a40bd33d1161005b578063a40bd33d14610138578063c51c783214610321578063cc364bac1461033f578063e240b75a146104fc5761007d565b806350a39b251461008257806355a373d6146100a45780635d5aa277146100ee575b600080fd5b61008a61051a565b604051808215151515815260200191505060405180910390f35b6100ac6107e6565b604051808273ffffffffffffffffffffffffffffffffffffffff1673ffffffffffffffffffffffffffffffffffffffff16815260200191505060405180910390f35b6100f661080b565b604051808273ffffffffffffffffffffffffffffffffffffffff1673ffffffffffffffffffffffffffffffffffffffff16815260200191505060405180910390f35b61031f6004803603606081101561014e57600080fd5b810190808035906020019064010000000081111561016b57600080fd5b82018360208201111561017d57600080fd5b8035906020019184600183028401116401000000008311171561019f57600080fd5b91908080601f016020809104026020016040519081016040528093929190818152602001838380828437600081840152601f19601f8201169050808301925050505050505091929192908035906020019064010000000081111561020257600080fd5b82018360208201111561021457600080fd5b8035906020019184600183028401116401000000008311171561023657600080fd5b91908080601f016020809104026020016040519081016040528093929190818152602001838380828437600081840152601f19601f8201169050808301925050505050505091929192908035906020019064010000000081111561029957600080fd5b8201836020820111156102ab57600080fd5b803590602001918460018302840111640100000000831117156102cd57600080fd5b91908080601f016020809104026020016040519081016040528093929190818152602001838380828437600081840152601f19601f820116905080830192505050505050509192919290505050610831565b005b610329610f3d565b6040518082815260200191505060405180910390f35b61036b6004803603602081101561035557600080fd5b8101908080359060200190929190505050610f43565b604051808060200180602001806020018673ffffffffffffffffffffffffffffffffffffffff1673ffffffffffffffffffffffffffffffffffffffff16815260200185151515158152602001848103845289818151815260200191508051906020019080838360005b838110156103ef5780820151818401526020810190506103d4565b50505050905090810190601f16801561041c5780820380516001836020036101000a031916815260200191505b50848103835288818151815260200191508051906020019080838360005b8381101561045557808201518184015260208101905061043a565b50505050905090810190601f1680156104825780820380516001836020036101000a031916815260200191505b50848103825287818151815260200191508051906020019080838360005b838110156104bb5780820151818401526020810190506104a0565b50505050905090810190601f1680156104e85780820380516001836020036101000a031916815260200191505b509850505050505050505060405180910390f35b61050461116e565b6040518082815260200191505060405180910390f35b60006002546000809054906101000a900473ffffffffffffffffffffffffffffffffffffffff1673ffffffffffffffffffffffffffffffffffffffff166370a08231336040518263ffffffff1660e01b8152600401808273ffffffffffffffffffffffffffffffffffffffff1673ffffffffffffffffffffffffffffffffffffffff16815260200191505060206040518083038186803b1580156105bd57600080fd5b505afa1580156105d1573d6000803e3d6000fd5b505050506040513d60208110156105e757600080fd5b8101908080519060200190929190505050101561064f576040517f08c379a000000000000000000000000000000000000000000000000000000000815260040180806020018281038252602c81526020018061121a602c913960400191505060405180910390fd5b6000809054906101000a900473ffffffffffffffffffffffffffffffffffffffff1673ffffffffffffffffffffffffffffffffffffffff16634af350eb600160009054906101000a900473ffffffffffffffffffffffffffffffffffffffff16600254336040518463ffffffff1660e01b8152600401808473ffffffffffffffffffffffffffffffffffffffff1673ffffffffffffffffffffffffffffffffffffffff1681526020018381526020018273ffffffffffffffffffffffffffffffffffffffff1673ffffffffffffffffffffffffffffffffffffffff1681526020019350505050602060405180830381600087803b15801561074f57600080fd5b505af1158015610763573d6000803e3d6000fd5b505050506040513d602081101561077957600080fd5b81019080805190602001909291905050506107df576040517f08c379a00000000000000000000000000000000000000000000000000000000081526004018080602001828103825260228152602001806112466022913960400191505060405180910390fd5b6001905090565b6000809054906101000a900473ffffffffffffffffffffffffffffffffffffffff1681565b600160009054906101000a900473ffffffffffffffffffffffffffffffffffffffff1681565b60008351116108a8576040517f08c379a00000000000000000000000000000000000000000000000000000000081526004018080602001828103825260138152602001807f4d757374206861766520736f6d6520646174610000000000000000000000000081525060200191505060405180910390fd5b600082511161091f576040517f08c379a00000000000000000000000000000000000000000000000000000000081526004018080602001828103825260138152602001807f4d757374206861766520736f6d6520646174610000000000000000000000000081525060200191505060405180910390fd5b6000815111610996576040517f08c379a00000000000000000000000000000000000000000000000000000000081526004018080602001828103825260138152602001807f4d757374206861766520736f6d6520646174610000000000000000000000000081525060200191505060405180910390fd5b6002546000809054906101000a900473ffffffffffffffffffffffffffffffffffffffff1673ffffffffffffffffffffffffffffffffffffffff166370a08231336040518263ffffffff1660e01b8152600401808273ffffffffffffffffffffffffffffffffffffffff1673ffffffffffffffffffffffffffffffffffffffff16815260200191505060206040518083038186803b158015610a3757600080fd5b505afa158015610a4b573d6000803e3d6000fd5b505050506040513d6020811015610a6157600080fd5b81019080805190602001909291905050501015610ac9576040517f08c379a000000000000000000000000000000000000000000000000000000000815260040180806020018281038252602c81526020018061121a602c913960400191505060405180910390fd5b6000809054906101000a900473ffffffffffffffffffffffffffffffffffffffff1673ffffffffffffffffffffffffffffffffffffffff16634af350eb600160009054906101000a900473ffffffffffffffffffffffffffffffffffffffff16600254336040518463ffffffff1660e01b8152600401808473ffffffffffffffffffffffffffffffffffffffff1673ffffffffffffffffffffffffffffffffffffffff1681526020018381526020018273ffffffffffffffffffffffffffffffffffffffff1673ffffffffffffffffffffffffffffffffffffffff1681526020019350505050602060405180830381600087803b158015610bc957600080fd5b505af1158015610bdd573d6000803e3d6000fd5b505050506040513d6020811015610bf357600080fd5b8101908080519060200190929190505050610c59576040517f08c379a00000000000000000000000000000000000000000000000000000000081526004018080602001828103825260228152602001806112466022913960400191505060405180910390fd5b6003600081548092919060010191905055506040518060a001604052808481526020018381526020018281526020013373ffffffffffffffffffffffffffffffffffffffff168152602001600015158152506004600060035481526020019081526020016000206000820151816000019080519060200190610cdc929190611174565b506020820151816001019080519060200190610cf9929190611174565b506040820151816002019080519060200190610d16929190611174565b5060608201518160030160006101000a81548173ffffffffffffffffffffffffffffffffffffffff021916908373ffffffffffffffffffffffffffffffffffffffff16021790555060808201518160030160146101000a81548160ff0219169083151502179055509050507f52f66c42ee9e888317604b6d75530c1fa973807ad072713eac1a4acd1e6f1913838383336000604051808060200180602001806020018673ffffffffffffffffffffffffffffffffffffffff1673ffffffffffffffffffffffffffffffffffffffff16815260200185151515158152602001848103845289818151815260200191508051906020019080838360005b83811015610e2c578082015181840152602081019050610e11565b50505050905090810190601f168015610e595780820380516001836020036101000a031916815260200191505b50848103835288818151815260200191508051906020019080838360005b83811015610e92578082015181840152602081019050610e77565b50505050905090810190601f168015610ebf5780820380516001836020036101000a031916815260200191505b50848103825287818151815260200191508051906020019080838360005b83811015610ef8578082015181840152602081019050610edd565b50505050905090810190601f168015610f255780820380516001836020036101000a031916815260200191505b509850505050505050505060405180910390a1505050565b60035481565b6004602052806000526040600020600091509050806000018054600181600116156101000203166002900480601f016020809104026020016040519081016040528092919081815260200182805460018160011615610100020316600290048015610fef5780601f10610fc457610100808354040283529160200191610fef565b820191906000526020600020905b815481529060010190602001808311610fd257829003601f168201915b505050505090806001018054600181600116156101000203166002900480601f01602080910402602001604051908101604052809291908181526020018280546001816001161561010002031660029004801561108d5780601f106110625761010080835404028352916020019161108d565b820191906000526020600020905b81548152906001019060200180831161107057829003601f168201915b505050505090806002018054600181600116156101000203166002900480601f01602080910402602001604051908101604052809291908181526020018280546001816001161561010002031660029004801561112b5780601f106111005761010080835404028352916020019161112b565b820191906000526020600020905b81548152906001019060200180831161110e57829003601f168201915b5050505050908060030160009054906101000a900473ffffffffffffffffffffffffffffffffffffffff16908060030160149054906101000a900460ff16905085565b60025481565b828054600181600116156101000203166002900490600052602060002090601f016020900481019282601f106111b557805160ff19168380011785556111e3565b828001600101855582156111e3579182015b828111156111e25782518255916020019190600101906111c7565b5b5090506111f091906111f4565b5090565b61121691905b808211156112125760008160009055506001016111fa565b5090565b9056fe41646d696e206d75737420706f7373657373206d6f726520746f6b656e73207468616e2064656d616e6465644d757374207472616e73666572207468652072657175657374656420746f6b656e73a265627a7a72315820d93b83411bc0ee88c8f9e48c1dadf6c272f95eaf8902d6ae9dc3bce6c133a89d64736f6c63430005100032",
  "source": "pragma solidity >=0.4.21 <0.7.0;\r\n\r\nimport \"./SwapToken.sol\";\r\nimport \"./SwapTokenSale.sol\";\r\n\r\ncontract CredentialPairs {\r\n    SwapToken public tokenContract;\r\n    SwapTokenSale public tokenSaleContract;\r\n    uint256 public revealValue;\r\n    uint256 public credentialPairCount;\r\n    mapping(uint => CredentialPair) public credentialPairs;\r\n\r\n    struct CredentialPair {\r\n        string accountName;\r\n        string key;\r\n        string value;\r\n        address payable owner;\r\n        bool isDeleted;\r\n    }\r\n\r\n    event credentialPairCreated(\r\n        string accountName,\r\n        string key,\r\n        string value,\r\n        address payable owner,\r\n        bool isDeleted\r\n    );\r\n\r\n    constructor(SwapToken _tokenContract,SwapTokenSale _tokenSaleContract,uint256 _value) public{\r\n        tokenContract = _tokenContract;\r\n        tokenSaleContract = _tokenSaleContract;\r\n        revealValue = _value;\r\n    }\r\n\r\n    function createCredentialPair(string memory _accountName, string memory _key, string memory _value ) public{\r\n        // Require a valid credential value\r\n        require(bytes(_accountName).length > 0,\"Must have some data\");\r\n        require(bytes(_key).length > 0,\"Must have some data\");\r\n        require(bytes(_value).length > 0,\"Must have some data\");\r\n        require(tokenContract.balanceOf(msg.sender) >= revealValue,\"Admin must possess more tokens than demanded\");\r\n        require(tokenContract.transferTokens(address(tokenSaleContract),revealValue,msg.sender),\"Must transfer the requested tokens\");\r\n        // Increment credential count\r\n        credentialPairCount ++;\r\n        // Create the credential\r\n        credentialPairs[credentialPairCount] = CredentialPair(_accountName,_key, _value, msg.sender, false);\r\n        // Trigger an event\r\n        emit credentialPairCreated(_accountName,_key, _value, msg.sender, false);\r\n    }\r\n\r\n    function revealCredentialPair() public returns (bool){\r\n        require(tokenContract.balanceOf(msg.sender) >= revealValue,\"Admin must possess more tokens than demanded\");\r\n        require(tokenContract.transferTokens(address(tokenSaleContract),revealValue,msg.sender),\"Must transfer the requested tokens\");\r\n        return true;\r\n    }\r\n}",
  "sourcePath": "C:\\Users\\dsajw\\Desktop\\Blockchain\\Dapp\\ico\\contracts\\CredentialPairs.sol",
  "compiler": {
    "name": "solc",
    "version": "0.5.16+commit.9c3226ce.Emscripten.clang"
  },
  "schemaVersion": "3.1.0",
  "updatedAt": "2020-06-25T18:59:41.266Z",
  "networkType": "ethereum",
  "devdoc": {
    "methods": {}
  },
  "userdoc": {
    "methods": {}
  }
}