{
  "contractName": "PasswordManager",
  "abi": [
    {
      "inputs": [
        {
          "internalType": "contract SwapToken",
          "name": "_tokenContract",
          "type": "address"
        },
        {
          "internalType": "uint256",
          "name": "_value",
          "type": "uint256"
        }
      ],
      "payable": false,
      "stateMutability": "nonpayable",
      "type": "constructor"
    },
    {
      "anonymous": false,
      "inputs": [
        {
          "indexed": false,
          "internalType": "uint256",
          "name": "id",
          "type": "uint256"
        },
        {
          "indexed": false,
          "internalType": "string",
          "name": "value",
          "type": "string"
        },
        {
          "indexed": false,
          "internalType": "address payable",
          "name": "owner",
          "type": "address"
        },
        {
          "indexed": false,
          "internalType": "bool",
          "name": "isDeleted",
          "type": "bool"
        }
      ],
      "name": "credentialCreated",
      "type": "event"
    },
    {
      "constant": true,
      "inputs": [],
      "name": "credentialCount",
      "outputs": [
        {
          "internalType": "uint256",
          "name": "",
          "type": "uint256"
        }
      ],
      "payable": false,
      "stateMutability": "view",
      "type": "function"
    },
    {
      "constant": true,
      "inputs": [
        {
          "internalType": "uint256",
          "name": "",
          "type": "uint256"
        }
      ],
      "name": "credentials",
      "outputs": [
        {
          "internalType": "uint256",
          "name": "id",
          "type": "uint256"
        },
        {
          "internalType": "string",
          "name": "credentialValue",
          "type": "string"
        },
        {
          "internalType": "address payable",
          "name": "owner",
          "type": "address"
        },
        {
          "internalType": "bool",
          "name": "isDeleted",
          "type": "bool"
        }
      ],
      "payable": false,
      "stateMutability": "view",
      "type": "function"
    },
    {
      "constant": true,
      "inputs": [],
      "name": "revealValue",
      "outputs": [
        {
          "internalType": "uint256",
          "name": "",
          "type": "uint256"
        }
      ],
      "payable": false,
      "stateMutability": "view",
      "type": "function"
    },
    {
      "constant": true,
      "inputs": [],
      "name": "tokenContract",
      "outputs": [
        {
          "internalType": "contract SwapToken",
          "name": "",
          "type": "address"
        }
      ],
      "payable": false,
      "stateMutability": "view",
      "type": "function"
    },
    {
      "constant": true,
      "inputs": [],
      "name": "transferred",
      "outputs": [
        {
          "internalType": "bool",
          "name": "",
          "type": "bool"
        }
      ],
      "payable": false,
      "stateMutability": "view",
      "type": "function"
    },
    {
      "constant": false,
      "inputs": [
        {
          "internalType": "string",
          "name": "_value",
          "type": "string"
        }
      ],
      "name": "createCredential",
      "outputs": [],
      "payable": false,
      "stateMutability": "nonpayable",
      "type": "function"
    }
  ],
  "bytecode": "0x608060405234801561001057600080fd5b50604051610b15380380610b158339818101604052604081101561003357600080fd5b810190808051906020019092919080519060200190929190505050816000806101000a81548173ffffffffffffffffffffffffffffffffffffffff021916908373ffffffffffffffffffffffffffffffffffffffff16021790555033600160006101000a81548173ffffffffffffffffffffffffffffffffffffffff021916908373ffffffffffffffffffffffffffffffffffffffff160217905550806002819055505050610a2e806100e76000396000f3fe608060405234801561001057600080fd5b50600436106100625760003560e01c806355a373d6146100675780637d85facd146100b1578063cb2ae486146100d3578063cd0e35b91461018e578063e0574e3f146101ac578063e240b75a14610298575b600080fd5b61006f6102b6565b604051808273ffffffffffffffffffffffffffffffffffffffff1673ffffffffffffffffffffffffffffffffffffffff16815260200191505060405180910390f35b6100b96102db565b604051808215151515815260200191505060405180910390f35b61018c600480360360208110156100e957600080fd5b810190808035906020019064010000000081111561010657600080fd5b82018360208201111561011857600080fd5b8035906020019184600183028401116401000000008311171561013a57600080fd5b91908080601f016020809104026020016040519081016040528093929190818152602001838380828437600081840152601f19601f8201169050808301925050505050505091929192905050506102ee565b005b610196610805565b6040518082815260200191505060405180910390f35b6101d8600480360360208110156101c257600080fd5b810190808035906020019092919050505061080b565b60405180858152602001806020018473ffffffffffffffffffffffffffffffffffffffff1673ffffffffffffffffffffffffffffffffffffffff16815260200183151515158152602001828103825285818151815260200191508051906020019080838360005b8381101561025a57808201518184015260208101905061023f565b50505050905090810190601f1680156102875780820380516001836020036101000a031916815260200191505b509550505050505060405180910390f35b6102a0610900565b6040518082815260200191505060405180910390f35b6000809054906101000a900473ffffffffffffffffffffffffffffffffffffffff1681565b600560009054906101000a900460ff1681565b6000815111610365576040517f08c379a00000000000000000000000000000000000000000000000000000000081526004018080602001828103825260138152602001807f4d757374206861766520736f6d6520646174610000000000000000000000000081525060200191505060405180910390fd5b6002546000809054906101000a900473ffffffffffffffffffffffffffffffffffffffff1673ffffffffffffffffffffffffffffffffffffffff166370a08231336040518263ffffffff1660e01b8152600401808273ffffffffffffffffffffffffffffffffffffffff1673ffffffffffffffffffffffffffffffffffffffff16815260200191505060206040518083038186803b15801561040657600080fd5b505afa15801561041a573d6000803e3d6000fd5b505050506040513d602081101561043057600080fd5b81019080805190602001909291905050501015610498576040517f08c379a000000000000000000000000000000000000000000000000000000000815260040180806020018281038252602c8152602001806109ac602c913960400191505060405180910390fd5b6000809054906101000a900473ffffffffffffffffffffffffffffffffffffffff1673ffffffffffffffffffffffffffffffffffffffff16636c5394d26000809054906101000a900473ffffffffffffffffffffffffffffffffffffffff16600254336040518463ffffffff1660e01b8152600401808473ffffffffffffffffffffffffffffffffffffffff1673ffffffffffffffffffffffffffffffffffffffff1681526020018381526020018273ffffffffffffffffffffffffffffffffffffffff1673ffffffffffffffffffffffffffffffffffffffff1681526020019350505050602060405180830381600087803b15801561059757600080fd5b505af11580156105ab573d6000803e3d6000fd5b505050506040513d60208110156105c157600080fd5b8101908080519060200190929190505050610627576040517f08c379a00000000000000000000000000000000000000000000000000000000081526004018080602001828103825260228152602001806109d86022913960400191505060405180910390fd5b600360008154809291906001019190505550604051806080016040528060035481526020018281526020013373ffffffffffffffffffffffffffffffffffffffff168152602001600015158152506004600060035481526020019081526020016000206000820151816000015560208201518160010190805190602001906106b0929190610906565b5060408201518160020160006101000a81548173ffffffffffffffffffffffffffffffffffffffff021916908373ffffffffffffffffffffffffffffffffffffffff16021790555060608201518160020160146101000a81548160ff0219169083151502179055509050507f66d5be7c747bd56d086b494620e88458355c0475c8b03d403b4b006999bcb3686003548233600060405180858152602001806020018473ffffffffffffffffffffffffffffffffffffffff1673ffffffffffffffffffffffffffffffffffffffff16815260200183151515158152602001828103825285818151815260200191508051906020019080838360005b838110156107c55780820151818401526020810190506107aa565b50505050905090810190601f1680156107f25780820380516001836020036101000a031916815260200191505b509550505050505060405180910390a150565b60035481565b6004602052806000526040600020600091509050806000015490806001018054600181600116156101000203166002900480601f0160208091040260200160405190810160405280929190818152602001828054600181600116156101000203166002900480156108bd5780601f10610892576101008083540402835291602001916108bd565b820191906000526020600020905b8154815290600101906020018083116108a057829003601f168201915b5050505050908060020160009054906101000a900473ffffffffffffffffffffffffffffffffffffffff16908060020160149054906101000a900460ff16905084565b60025481565b828054600181600116156101000203166002900490600052602060002090601f016020900481019282601f1061094757805160ff1916838001178555610975565b82800160010185558215610975579182015b82811115610974578251825591602001919060010190610959565b5b5090506109829190610986565b5090565b6109a891905b808211156109a457600081600090555060010161098c565b5090565b9056fe41646d696e206d75737420706f7373657373206d6f726520746f6b656e73207468616e2064656d616e6465644d757374207472616e73666572207468652072657175657374656420746f6b656e73a265627a7a723158200ac342917a14dd3213e93ba84ecee444d011d64f317884344d06aa8c8b169a4764736f6c63430005100032",
  "source": "pragma solidity >=0.4.21 <0.7.0;\r\n\r\nimport \"./SwapToken.sol\";\r\nimport \"./SwapTokenSale.sol\";\r\n\r\ncontract PasswordManager {\r\n    SwapToken public tokenContract;\r\n    address payable receiver;\r\n    uint256 public revealValue;\r\n    uint256 public credentialCount;\r\n    mapping(uint => Credential) public credentials;\r\n    bool public transferred;\r\n\r\n    struct Credential {\r\n        uint id;\r\n        string credentialValue;\r\n        address payable owner;\r\n        bool isDeleted;\r\n    }\r\n\r\n    event credentialCreated(\r\n        uint id,\r\n        string value,\r\n        address payable owner,\r\n        bool isDeleted\r\n    );\r\n\r\n    constructor(SwapToken _tokenContract,uint256 _value) public{\r\n        tokenContract = _tokenContract;\r\n        receiver = msg.sender;\r\n        revealValue = _value;\r\n    }\r\n\r\n  // function delegatedTransfer(address a, uint256 v) public{\r\n        //bool status;\r\n        //bytes memory result;\r\n        //(status, result) = address(tokenContract).delegatecall(abi.encodePacked(bytes4(keccak256(\"transfer(address,uint256)\")), a, v));\r\n        //address(tokenContract).call(abi.encodeWithSignature((\"transfer(address,uint256)\"), a, v));\r\n   // }\r\n\r\n    function createCredential(string memory _value) public {\r\n       // address payable receiver = address(uint160(0x6c749E8BEE9460e64250922D39A519E78A637627));\r\n        //address payable sender = address(uint160(0xE718022A857C1D3F1d5b3E7b17ff81AB6EaedF94));\r\n        // Require a valid credential value\r\n        require(bytes(_value).length > 0,\"Must have some data\");\r\n        require(tokenContract.balanceOf(msg.sender) >= revealValue,\"Admin must possess more tokens than demanded\");\r\n        //delegatedTransfer(msg.sender,revealValue);\r\n        //address(tokenContract).call(abi.encodeWithSignature((\"transfer(address,uint256)\"), msg.sender, revealValue));\r\n        require(tokenContract.transferToCreate(address(tokenContract),revealValue,msg.sender),\"Must transfer the requested tokens\");\r\n        // Increment credential count\r\n        credentialCount ++;\r\n        // Create the credential\r\n        credentials[credentialCount] = Credential(credentialCount,_value, msg.sender, false);\r\n        // Trigger an event\r\n        emit credentialCreated(credentialCount, _value, msg.sender, false);\r\n    }\r\n}",
  "sourcePath": "C:\\Users\\dsajw\\Desktop\\Blockchain\\Dapp\\ico\\contracts\\PasswordManager.sol",
  "compiler": {
    "name": "solc",
    "version": "0.5.16+commit.9c3226ce.Emscripten.clang"
  },
  "schemaVersion": "3.1.0",
  "updatedAt": "2020-06-23T21:20:14.629Z",
  "networkType": "ethereum",
  "devdoc": {
    "methods": {}
  },
  "userdoc": {
    "methods": {}
  }
}