{
  "contractName": "PasswordManager",
  "abi": [
    {
      "inputs": [
        {
          "internalType": "contract SwapToken",
          "name": "_tokenContract",
          "type": "address"
        },
        {
          "internalType": "contract SwapTokenSale",
          "name": "_tokenSaleContract",
          "type": "address"
        },
        {
          "internalType": "uint256",
          "name": "_value",
          "type": "uint256"
        }
      ],
      "payable": false,
      "stateMutability": "nonpayable",
      "type": "constructor"
    },
    {
      "anonymous": false,
      "inputs": [
        {
          "indexed": false,
          "internalType": "uint256",
          "name": "id",
          "type": "uint256"
        },
        {
          "indexed": false,
          "internalType": "string",
          "name": "value",
          "type": "string"
        },
        {
          "indexed": false,
          "internalType": "address payable",
          "name": "owner",
          "type": "address"
        },
        {
          "indexed": false,
          "internalType": "bool",
          "name": "isDeleted",
          "type": "bool"
        }
      ],
      "name": "credentialCreated",
      "type": "event"
    },
    {
      "constant": true,
      "inputs": [],
      "name": "credentialCount",
      "outputs": [
        {
          "internalType": "uint256",
          "name": "",
          "type": "uint256"
        }
      ],
      "payable": false,
      "stateMutability": "view",
      "type": "function"
    },
    {
      "constant": true,
      "inputs": [
        {
          "internalType": "uint256",
          "name": "",
          "type": "uint256"
        }
      ],
      "name": "credentials",
      "outputs": [
        {
          "internalType": "uint256",
          "name": "id",
          "type": "uint256"
        },
        {
          "internalType": "string",
          "name": "credentialValue",
          "type": "string"
        },
        {
          "internalType": "address payable",
          "name": "owner",
          "type": "address"
        },
        {
          "internalType": "bool",
          "name": "isDeleted",
          "type": "bool"
        }
      ],
      "payable": false,
      "stateMutability": "view",
      "type": "function"
    },
    {
      "constant": true,
      "inputs": [],
      "name": "revealValue",
      "outputs": [
        {
          "internalType": "uint256",
          "name": "",
          "type": "uint256"
        }
      ],
      "payable": false,
      "stateMutability": "view",
      "type": "function"
    },
    {
      "constant": true,
      "inputs": [],
      "name": "tokenContract",
      "outputs": [
        {
          "internalType": "contract SwapToken",
          "name": "",
          "type": "address"
        }
      ],
      "payable": false,
      "stateMutability": "view",
      "type": "function"
    },
    {
      "constant": true,
      "inputs": [],
      "name": "tokenSaleContract",
      "outputs": [
        {
          "internalType": "contract SwapTokenSale",
          "name": "",
          "type": "address"
        }
      ],
      "payable": false,
      "stateMutability": "view",
      "type": "function"
    },
    {
      "constant": true,
      "inputs": [],
      "name": "transferred",
      "outputs": [
        {
          "internalType": "bool",
          "name": "",
          "type": "bool"
        }
      ],
      "payable": false,
      "stateMutability": "view",
      "type": "function"
    },
    {
      "constant": false,
      "inputs": [
        {
          "internalType": "string",
          "name": "_value",
          "type": "string"
        }
      ],
      "name": "createCredential",
      "outputs": [],
      "payable": false,
      "stateMutability": "nonpayable",
      "type": "function"
    },
    {
      "constant": false,
      "inputs": [],
      "name": "revealCredential",
      "outputs": [
        {
          "internalType": "bool",
          "name": "",
          "type": "bool"
        }
      ],
      "payable": false,
      "stateMutability": "nonpayable",
      "type": "function"
    }
  ],
  "bytecode": "0x608060405234801561001057600080fd5b50604051610ee6380380610ee68339818101604052606081101561003357600080fd5b81019080805190602001909291908051906020019092919080519060200190929190505050826000806101000a81548173ffffffffffffffffffffffffffffffffffffffff021916908373ffffffffffffffffffffffffffffffffffffffff16021790555081600160006101000a81548173ffffffffffffffffffffffffffffffffffffffff021916908373ffffffffffffffffffffffffffffffffffffffff16021790555033600260006101000a81548173ffffffffffffffffffffffffffffffffffffffff021916908373ffffffffffffffffffffffffffffffffffffffff16021790555080600381905550505050610db3806101336000396000f3fe608060405234801561001057600080fd5b50600436106100885760003560e01c8063cb2ae4861161005b578063cb2ae48614610165578063cd0e35b914610220578063e0574e3f1461023e578063e240b75a1461032a57610088565b806353eb49701461008d57806355a373d6146100af5780635d5aa277146100f95780637d85facd14610143575b600080fd5b610095610348565b604051808215151515815260200191505060405180910390f35b6100b7610614565b604051808273ffffffffffffffffffffffffffffffffffffffff1673ffffffffffffffffffffffffffffffffffffffff16815260200191505060405180910390f35b610101610639565b604051808273ffffffffffffffffffffffffffffffffffffffff1673ffffffffffffffffffffffffffffffffffffffff16815260200191505060405180910390f35b61014b61065f565b604051808215151515815260200191505060405180910390f35b61021e6004803603602081101561017b57600080fd5b810190808035906020019064010000000081111561019857600080fd5b8201836020820111156101aa57600080fd5b803590602001918460018302840111640100000000831117156101cc57600080fd5b91908080601f016020809104026020016040519081016040528093929190818152602001838380828437600081840152601f19601f820116905080830192505050505050509192919290505050610672565b005b610228610b8a565b6040518082815260200191505060405180910390f35b61026a6004803603602081101561025457600080fd5b8101908080359060200190929190505050610b90565b60405180858152602001806020018473ffffffffffffffffffffffffffffffffffffffff1673ffffffffffffffffffffffffffffffffffffffff16815260200183151515158152602001828103825285818151815260200191508051906020019080838360005b838110156102ec5780820151818401526020810190506102d1565b50505050905090810190601f1680156103195780820380516001836020036101000a031916815260200191505b509550505050505060405180910390f35b610332610c85565b6040518082815260200191505060405180910390f35b60006003546000809054906101000a900473ffffffffffffffffffffffffffffffffffffffff1673ffffffffffffffffffffffffffffffffffffffff166370a08231336040518263ffffffff1660e01b8152600401808273ffffffffffffffffffffffffffffffffffffffff1673ffffffffffffffffffffffffffffffffffffffff16815260200191505060206040518083038186803b1580156103eb57600080fd5b505afa1580156103ff573d6000803e3d6000fd5b505050506040513d602081101561041557600080fd5b8101908080519060200190929190505050101561047d576040517f08c379a000000000000000000000000000000000000000000000000000000000815260040180806020018281038252602c815260200180610d31602c913960400191505060405180910390fd5b6000809054906101000a900473ffffffffffffffffffffffffffffffffffffffff1673ffffffffffffffffffffffffffffffffffffffff16634af350eb600160009054906101000a900473ffffffffffffffffffffffffffffffffffffffff16600354336040518463ffffffff1660e01b8152600401808473ffffffffffffffffffffffffffffffffffffffff1673ffffffffffffffffffffffffffffffffffffffff1681526020018381526020018273ffffffffffffffffffffffffffffffffffffffff1673ffffffffffffffffffffffffffffffffffffffff1681526020019350505050602060405180830381600087803b15801561057d57600080fd5b505af1158015610591573d6000803e3d6000fd5b505050506040513d60208110156105a757600080fd5b810190808051906020019092919050505061060d576040517f08c379a0000000000000000000000000000000000000000000000000000000008152600401808060200182810382526022815260200180610d5d6022913960400191505060405180910390fd5b6001905090565b6000809054906101000a900473ffffffffffffffffffffffffffffffffffffffff1681565b600160009054906101000a900473ffffffffffffffffffffffffffffffffffffffff1681565b600660009054906101000a900460ff1681565b60008151116106e9576040517f08c379a00000000000000000000000000000000000000000000000000000000081526004018080602001828103825260138152602001807f4d757374206861766520736f6d6520646174610000000000000000000000000081525060200191505060405180910390fd5b6003546000809054906101000a900473ffffffffffffffffffffffffffffffffffffffff1673ffffffffffffffffffffffffffffffffffffffff166370a08231336040518263ffffffff1660e01b8152600401808273ffffffffffffffffffffffffffffffffffffffff1673ffffffffffffffffffffffffffffffffffffffff16815260200191505060206040518083038186803b15801561078a57600080fd5b505afa15801561079e573d6000803e3d6000fd5b505050506040513d60208110156107b457600080fd5b8101908080519060200190929190505050101561081c576040517f08c379a000000000000000000000000000000000000000000000000000000000815260040180806020018281038252602c815260200180610d31602c913960400191505060405180910390fd5b6000809054906101000a900473ffffffffffffffffffffffffffffffffffffffff1673ffffffffffffffffffffffffffffffffffffffff16634af350eb600160009054906101000a900473ffffffffffffffffffffffffffffffffffffffff16600354336040518463ffffffff1660e01b8152600401808473ffffffffffffffffffffffffffffffffffffffff1673ffffffffffffffffffffffffffffffffffffffff1681526020018381526020018273ffffffffffffffffffffffffffffffffffffffff1673ffffffffffffffffffffffffffffffffffffffff1681526020019350505050602060405180830381600087803b15801561091c57600080fd5b505af1158015610930573d6000803e3d6000fd5b505050506040513d602081101561094657600080fd5b81019080805190602001909291905050506109ac576040517f08c379a0000000000000000000000000000000000000000000000000000000008152600401808060200182810382526022815260200180610d5d6022913960400191505060405180910390fd5b600460008154809291906001019190505550604051806080016040528060045481526020018281526020013373ffffffffffffffffffffffffffffffffffffffff16815260200160001515815250600560006004548152602001908152602001600020600082015181600001556020820151816001019080519060200190610a35929190610c8b565b5060408201518160020160006101000a81548173ffffffffffffffffffffffffffffffffffffffff021916908373ffffffffffffffffffffffffffffffffffffffff16021790555060608201518160020160146101000a81548160ff0219169083151502179055509050507f66d5be7c747bd56d086b494620e88458355c0475c8b03d403b4b006999bcb3686004548233600060405180858152602001806020018473ffffffffffffffffffffffffffffffffffffffff1673ffffffffffffffffffffffffffffffffffffffff16815260200183151515158152602001828103825285818151815260200191508051906020019080838360005b83811015610b4a578082015181840152602081019050610b2f565b50505050905090810190601f168015610b775780820380516001836020036101000a031916815260200191505b509550505050505060405180910390a150565b60045481565b6005602052806000526040600020600091509050806000015490806001018054600181600116156101000203166002900480601f016020809104026020016040519081016040528092919081815260200182805460018160011615610100020316600290048015610c425780601f10610c1757610100808354040283529160200191610c42565b820191906000526020600020905b815481529060010190602001808311610c2557829003601f168201915b5050505050908060020160009054906101000a900473ffffffffffffffffffffffffffffffffffffffff16908060020160149054906101000a900460ff16905084565b60035481565b828054600181600116156101000203166002900490600052602060002090601f016020900481019282601f10610ccc57805160ff1916838001178555610cfa565b82800160010185558215610cfa579182015b82811115610cf9578251825591602001919060010190610cde565b5b509050610d079190610d0b565b5090565b610d2d91905b80821115610d29576000816000905550600101610d11565b5090565b9056fe41646d696e206d75737420706f7373657373206d6f726520746f6b656e73207468616e2064656d616e6465644d757374207472616e73666572207468652072657175657374656420746f6b656e73a265627a7a7231582050b0a44fbe221a0eb692aeee1de2eabf04d5f6289f335e04d9068f6b8ec81a1764736f6c63430005100032",
  "source": "pragma solidity >=0.4.21 <0.7.0;\r\n\r\nimport \"./SwapToken.sol\";\r\nimport \"./SwapTokenSale.sol\";\r\n\r\ncontract PasswordManager {\r\n    SwapToken public tokenContract;\r\n    SwapTokenSale public tokenSaleContract;\r\n    address payable receiver;\r\n    uint256 public revealValue;\r\n    uint256 public credentialCount;\r\n    mapping(uint => Credential) public credentials;\r\n    bool public transferred;\r\n\r\n    struct Credential {\r\n        uint id;\r\n        string credentialValue;\r\n        address payable owner;\r\n        bool isDeleted;\r\n    }\r\n\r\n    event credentialCreated(\r\n        uint id,\r\n        string value,\r\n        address payable owner,\r\n        bool isDeleted\r\n    );\r\n\r\n    constructor(SwapToken _tokenContract,SwapTokenSale _tokenSaleContract,uint256 _value) public{\r\n        tokenContract = _tokenContract;\r\n        tokenSaleContract = _tokenSaleContract;\r\n        receiver = msg.sender;\r\n        revealValue = _value;\r\n    }\r\n\r\n    function createCredential(string memory _value) public{\r\n        // Require a valid credential value\r\n        require(bytes(_value).length > 0,\"Must have some data\");\r\n        require(tokenContract.balanceOf(msg.sender) >= revealValue,\"Admin must possess more tokens than demanded\");\r\n        require(tokenContract.transferTokens(address(tokenSaleContract),revealValue,msg.sender),\"Must transfer the requested tokens\");\r\n        // Increment credential count\r\n        credentialCount ++;\r\n        // Create the credential\r\n        credentials[credentialCount] = Credential(credentialCount,_value, msg.sender, false);\r\n        // Trigger an event\r\n        emit credentialCreated(credentialCount, _value, msg.sender, false);\r\n    }\r\n\r\n    function revealCredential() public returns (bool){\r\n        require(tokenContract.balanceOf(msg.sender) >= revealValue,\"Admin must possess more tokens than demanded\");\r\n        require(tokenContract.transferTokens(address(tokenSaleContract),revealValue,msg.sender),\"Must transfer the requested tokens\");\r\n        return true;\r\n    }\r\n}",
  "sourcePath": "C:\\Users\\dsajw\\Desktop\\Blockchain\\Dapp\\ico\\contracts\\PasswordManager.sol",
  "compiler": {
    "name": "solc",
    "version": "0.5.16+commit.9c3226ce.Emscripten.clang"
  },
  "schemaVersion": "3.1.0",
  "updatedAt": "2020-06-24T19:42:32.247Z",
  "networkType": "ethereum",
  "devdoc": {
    "methods": {}
  },
  "userdoc": {
    "methods": {}
  }
}