{
  "contractName": "PasswordManager",
  "abi": [
    {
      "inputs": [
        {
          "internalType": "uint256",
          "name": "_value",
          "type": "uint256"
        }
      ],
      "payable": false,
      "stateMutability": "nonpayable",
      "type": "constructor"
    },
    {
      "anonymous": false,
      "inputs": [
        {
          "indexed": false,
          "internalType": "uint256",
          "name": "id",
          "type": "uint256"
        },
        {
          "indexed": false,
          "internalType": "string",
          "name": "value",
          "type": "string"
        },
        {
          "indexed": false,
          "internalType": "address payable",
          "name": "owner",
          "type": "address"
        },
        {
          "indexed": false,
          "internalType": "bool",
          "name": "isDeleted",
          "type": "bool"
        }
      ],
      "name": "credentialCreated",
      "type": "event"
    },
    {
      "constant": true,
      "inputs": [],
      "name": "credentialCount",
      "outputs": [
        {
          "internalType": "uint256",
          "name": "",
          "type": "uint256"
        }
      ],
      "payable": false,
      "stateMutability": "view",
      "type": "function"
    },
    {
      "constant": true,
      "inputs": [
        {
          "internalType": "uint256",
          "name": "",
          "type": "uint256"
        }
      ],
      "name": "credentials",
      "outputs": [
        {
          "internalType": "uint256",
          "name": "id",
          "type": "uint256"
        },
        {
          "internalType": "string",
          "name": "credentialValue",
          "type": "string"
        },
        {
          "internalType": "address payable",
          "name": "owner",
          "type": "address"
        },
        {
          "internalType": "bool",
          "name": "isDeleted",
          "type": "bool"
        }
      ],
      "payable": false,
      "stateMutability": "view",
      "type": "function"
    },
    {
      "constant": true,
      "inputs": [],
      "name": "revealValue",
      "outputs": [
        {
          "internalType": "uint256",
          "name": "",
          "type": "uint256"
        }
      ],
      "payable": false,
      "stateMutability": "view",
      "type": "function"
    },
    {
      "constant": false,
      "inputs": [
        {
          "internalType": "string",
          "name": "_value",
          "type": "string"
        }
      ],
      "name": "createCredential",
      "outputs": [],
      "payable": false,
      "stateMutability": "nonpayable",
      "type": "function"
    }
  ],
  "bytecode": "0x608060405234801561001057600080fd5b506040516106bf3803806106bf8339818101604052602081101561003357600080fd5b810190808051906020019092919050505080600081905550506106648061005b6000396000f3fe608060405234801561001057600080fd5b506004361061004c5760003560e01c8063cb2ae48614610051578063cd0e35b91461010c578063e0574e3f1461012a578063e240b75a14610216575b600080fd5b61010a6004803603602081101561006757600080fd5b810190808035906020019064010000000081111561008457600080fd5b82018360208201111561009657600080fd5b803590602001918460018302840111640100000000831117156100b857600080fd5b91908080601f016020809104026020016040519081016040528093929190818152602001838380828437600081840152601f19601f820116905080830192505050505050509192919290505050610234565b005b610114610489565b6040518082815260200191505060405180910390f35b6101566004803603602081101561014057600080fd5b810190808035906020019092919050505061048f565b60405180858152602001806020018473ffffffffffffffffffffffffffffffffffffffff1673ffffffffffffffffffffffffffffffffffffffff16815260200183151515158152602001828103825285818151815260200191508051906020019080838360005b838110156101d85780820151818401526020810190506101bd565b50505050905090810190601f1680156102055780820380516001836020036101000a031916815260200191505b509550505050505060405180910390f35b61021e610584565b6040518082815260200191505060405180910390f35b60008151116102ab576040517f08c379a00000000000000000000000000000000000000000000000000000000081526004018080602001828103825260138152602001807f4d757374206861766520736f6d6520646174610000000000000000000000000081525060200191505060405180910390fd5b600160008154809291906001019190505550604051806080016040528060015481526020018281526020013373ffffffffffffffffffffffffffffffffffffffff1681526020016000151581525060026000600154815260200190815260200160002060008201518160000155602082015181600101908051906020019061033492919061058a565b5060408201518160020160006101000a81548173ffffffffffffffffffffffffffffffffffffffff021916908373ffffffffffffffffffffffffffffffffffffffff16021790555060608201518160020160146101000a81548160ff0219169083151502179055509050507f66d5be7c747bd56d086b494620e88458355c0475c8b03d403b4b006999bcb3686001548233600060405180858152602001806020018473ffffffffffffffffffffffffffffffffffffffff1673ffffffffffffffffffffffffffffffffffffffff16815260200183151515158152602001828103825285818151815260200191508051906020019080838360005b8381101561044957808201518184015260208101905061042e565b50505050905090810190601f1680156104765780820380516001836020036101000a031916815260200191505b509550505050505060405180910390a150565b60015481565b6002602052806000526040600020600091509050806000015490806001018054600181600116156101000203166002900480601f0160208091040260200160405190810160405280929190818152602001828054600181600116156101000203166002900480156105415780601f1061051657610100808354040283529160200191610541565b820191906000526020600020905b81548152906001019060200180831161052457829003601f168201915b5050505050908060020160009054906101000a900473ffffffffffffffffffffffffffffffffffffffff16908060020160149054906101000a900460ff16905084565b60005481565b828054600181600116156101000203166002900490600052602060002090601f016020900481019282601f106105cb57805160ff19168380011785556105f9565b828001600101855582156105f9579182015b828111156105f85782518255916020019190600101906105dd565b5b509050610606919061060a565b5090565b61062c91905b80821115610628576000816000905550600101610610565b5090565b9056fea265627a7a72315820c5583fe15fbe194807dfaa10281a79c9c2caa408428457351c9dd43fe5622c6c64736f6c63430005100032",
  "source": "pragma solidity >=0.4.21 <0.7.0;\r\n\r\ncontract PasswordManager{\r\n    uint256 public revealValue;\r\n    uint256 public credentialCount;\r\n    mapping(uint => Credential) public credentials;\r\n\r\n    struct Credential {\r\n        uint id;\r\n        string credentialValue;\r\n        address payable owner;\r\n        bool isDeleted;\r\n    }\r\n\r\n    event credentialCreated(\r\n        uint id,\r\n        string value,\r\n        address payable owner,\r\n        bool isDeleted\r\n    );\r\n\r\n    constructor(uint256 _value) public{\r\n        revealValue = _value;\r\n    }\r\n\r\n    function createCredential(string memory _value) public {\r\n        // Require a valid credential value\r\n        require(bytes(_value).length > 0,\"Must have some data\");\r\n        // Increment credential count\r\n        credentialCount ++;\r\n        // Create the credential\r\n        credentials[credentialCount] = Credential(credentialCount,_value, msg.sender, false);\r\n        // Trigger an event\r\n        emit credentialCreated(credentialCount, _value, msg.sender, false);\r\n    }\r\n}",
  "sourcePath": "C:\\Users\\dsajw\\Desktop\\Blockchain\\Dapp\\ico\\contracts\\PasswordManager.sol",
  "compiler": {
    "name": "solc",
    "version": "0.5.16+commit.9c3226ce.Emscripten.clang"
  },
  "schemaVersion": "3.1.0",
  "updatedAt": "2020-06-20T14:17:58.250Z",
  "networkType": "ethereum",
  "devdoc": {
    "methods": {}
  },
  "userdoc": {
    "methods": {}
  }
}